:100000000C9461000C947E000C947E000C947E0095
:100010000C947E000C947E000C947E000C947E0068
:100020000C947E000C947E000C947E000C947E0058
:100030000C947E000C947E000C947E000C947E0048
:100040000C948C010C947E000C947E000C947E0029
:100050000C947E000C947E000C947E000C947E0028
:100060000C947E000C947E0000000000230026000B
:10007000290000000008000201000003040700003E
:1000800000000000000000000000250028002B00F8
:1000900000000000240027002A00040404040404D3
:1000A0000404020202020202030303030303010227
:1000B00004081020408001020408102001020408F6
:1000C000102011241FBECFEFD8E0DEBFCDBF11E05E
:1000D000A0E0B1E0ECE8F5E002C005900D92A4319B
:1000E000B107D9F721E0A4E1B1E001C01D92AE3122
:1000F000B207E1F70E94D6010C94C4020C940000F0
:10010000833081F028F4813099F08230A9F008958D
:100110008730A9F08830C9F08430B1F48091800034
:100120008F7D03C0809180008F7780938000089539
:1001300084B58F7784BD089584B58F7DFBCF809182
:10014000B0008F778093B00008958091B0008F7DCC
:10015000F9CFCF93DF93282F30E0F901EE58FF4F0E
:100160008491F901E255FF4FD491F901E656FF4F12
:10017000C491CC23A1F081110E948000EC2FF0E00B
:10018000EE0FFF1FE859FF4FA591B491EC91ED23BD
:1001900081E090E009F480E0DF91CF91089580E064
:1001A00090E0FACF1F93CF93DF93282F30E0F9012F
:1001B000EE58FF4F8491F901E255FF4FD491F901B8
:1001C000E656FF4FC491CC23A9F0162F81110E944F
:1001D0008000EC2FF0E0EE0FFF1FEA57FF4FA591D4
:1001E000B4918FB7F894EC91111108C0D095DE232B
:1001F000DC938FBFDF91CF911F910895DE2BF8CF55
:100200003FB7F8948091190190911A01A0911B01B8
:10021000B0911C0126B5A89B05C02F3F19F001968F
:10022000A11DB11D3FBFBA2FA92F982F8827BC0150
:10023000CD01620F711D811D911D42E0660F771F78
:10024000881F991F4A95D1F708958F929F92AF9278
:10025000BF92CF92DF92EF92FF924B015C010E941E
:1002600000016B017C010E9400016C197D098E095F
:100270009F09683E734081059105A8F321E0821A29
:100280009108A108B10888EEC80E83E0D81EE11CD1
:10029000F11C81149104A104B10429F7FF90EF909F
:1002A000DF90CF90BF90AF909F908F9008951F9355
:1002B000CF93DF93182FC0E0D1E088812296612F81
:1002C0000E94D20081E0CA30D807B9F7DF91CF9100
:1002D0001F910895EC0160E083E10E94D20080E06C
:1002E0000E945701CC0FDD1FC050DF4FC88161E075
:1002F0008C2F0E94D20068EE73E080E090E00E94B4
:10030000250160E08C2F0E94D20068EE73E080E04F
:1003100090E00E942501EBCF1F920F920FB60F9233
:1003200011242F933F938F939F93AF93BF9380910B
:10033000150190911601A0911701B091180130910B
:10034000140123E0230F2D3758F50196A11DB11D8F
:10035000209314018093150190931601A093170127
:10036000B09318018091190190911A01A0911B017D
:10037000B0911C010196A11DB11D809319019093AC
:100380001A01A0931B01B0931C01BF91AF919F91E3
:100390008F913F912F910F900FBE0F901F90189546
:1003A00026E8230F0296A11DB11DD2CF789484B503
:1003B000826084BD84B5816084BD85B5826085BD61
:1003C00085B5816085BD80916E00816080936E00EF
:1003D00010928100809181008260809381008091E1
:1003E0008100816080938100809180008160809392
:1003F00080008091B10084608093B1008091B00052
:1004000081608093B00080917A00846080937A004C
:1004100080917A00826080937A0080917A00816076
:1004200080937A0080917A00806880937A0010929D
:10043000C100C0E0D1E0DE018D919D919927FC01C2
:10044000E255FF4F249186569F4FFC0184918823EB
:10045000A1F090E0880F991FFC01E057FF4F4591F4
:100460005491FC01EA57FF4F859194918FB7F8940E
:10047000FA019081922B90838FBFF1E0AA30BF07E1
:10048000D9F6AAE0B1E08D919D919927FC01E25542
:10049000FF4F249186569F4FFC0184918823C9F019
:1004A00090E0880F991FFC01E057FF4F4591549150
:1004B000FC01EA57FF4F659174919FB7F894FA01D8
:1004C0008081209582238083FB0180818223808329
:1004D0009FBFF1E0A431BF07B1F681E00E94570150
:1004E0009AE0E92E91E0F92E10E000E0D880229603
:1004F00060E08D2D0E94D20064E670E080E090E024
:100500000E942501F7018081F2E0EF0EF11C0E94AC
:10051000A900892B19F0C8010E946A0161E08D2DA4
:100520000E94D2000F5F1F4F04301105F9F661E001
:1005300083E10E94D200FF24F39480E0C82E80E083
:10054000D82EF0921D010AE011E0D0E0C0E0F801E1
:1005500080810E5F1F4F0E94A90021E0019709F0E2
:1005600020E080911D01282320931D01211102C04C
:10057000CE01D2CF2196C530D10549F7C114D1049F
:0C05800001F30E940000DDCFF894FFCFD3
:10058C00040005000600070008000E000F00100014
:04059C001100020048
:00000001FF
