:100000000C9461000C947E000C947E000C947E0095
:100010000C947E000C947E000C947E000C947E0068
:100020000C947E000C947E000C947E000C947E0058
:100030000C947E000C947E000C947E000C947E0048
:100040000C948C010C947E000C947E000C947E0029
:100050000C947E000C947E000C947E000C947E0028
:100060000C947E000C947E0000000000230026000B
:10007000290000000008000201000003040700003E
:1000800000000000000000000000250028002B00F8
:1000900000000000240027002A00040404040404D3
:1000A0000404020202020202030303030303010227
:1000B00004081020408001020408102001020408F6
:1000C000102011241FBECFEFD8E0DEBFCDBF11E05E
:1000D000A0E0B1E0EEE8F5E002C005900D92A2319B
:1000E000B107D9F721E0A2E1B1E001C01D92AC3126
:1000F000B207E1F70E94D6010C94C5020C940000EF
:10010000833081F028F4813099F08230A9F008958D
:100110008730A9F08830C9F08430B1F48091800034
:100120008F7D03C0809180008F7780938000089539
:1001300084B58F7784BD089584B58F7DFBCF809182
:10014000B0008F778093B00008958091B0008F7DCC
:10015000F9CFCF93DF93282F30E0F901EE58FF4F0E
:100160008491F901E255FF4FD491F901E656FF4F12
:10017000C491CC23A1F081110E948000EC2FF0E00B
:10018000EE0FFF1FE859FF4FA591B491EC91ED23BD
:1001900081E090E009F480E0DF91CF91089580E064
:1001A00090E0FACF1F93CF93DF93282F30E0F9012F
:1001B000EE58FF4F8491F901E255FF4FD491F901B8
:1001C000E656FF4FC491CC23A9F0162F81110E944F
:1001D0008000EC2FF0E0EE0FFF1FEA57FF4FA591D4
:1001E000B4918FB7F894EC91111108C0D095DE232B
:1001F000DC938FBFDF91CF911F910895DE2BF8CF55
:100200003FB7F8948091170190911801A0911901BE
:10021000B0911A0126B5A89B05C02F3F19F0019691
:10022000A11DB11D3FBFBA2FA92F982F8827BC0150
:10023000CD01620F711D811D911D42E0660F771F78
:10024000881F991F4A95D1F708958F929F92AF9278
:10025000BF92CF92DF92EF92FF924B015C010E941E
:1002600000016B017C010E9400016C197D098E095F
:100270009F09683E734081059105A8F321E0821A29
:100280009108A108B10888EEC80E83E0D81EE11CD1
:10029000F11C81149104A104B10429F7FF90EF909F
:1002A000DF90CF90BF90AF909F908F900895CF93A5
:1002B000C82F682F84E00E94D2006C2F85E00E9436
:1002C000D2006C2F86E00E94D2006C2F87E0CF9185
:1002D0000C94D200EC0160E083E10E94D20080E047
:1002E0000E945701CC0FDD1FC050DF4FC88161E075
:1002F0008C2F0E94D20068EE73E080E090E00E94B4
:10030000250160E08C2F0E94D20068EE73E080E04F
:1003100090E00E942501EBCF1F920F920FB60F9233
:1003200011242F933F938F939F93AF93BF9380910B
:10033000130190911401A0911501B0911601309113
:10034000120123E0230F2D3758F50196A11DB11D91
:10035000209312018093130190931401A09315012F
:10036000B09316018091170190911801A091190185
:10037000B0911A010196A11DB11D809317019093B0
:100380001801A0931901B0931A01BF91AF919F91E9
:100390008F913F912F910F900FBE0F901F90189546
:1003A00026E8230F0296A11DB11DD2CF789484B503
:1003B000826084BD84B5816084BD85B5826085BD61
:1003C00085B5816085BD80916E00816080936E00EF
:1003D00010928100809181008260809381008091E1
:1003E0008100816080938100809180008160809392
:1003F00080008091B10084608093B1008091B00052
:1004000081608093B00080917A00846080937A004C
:1004100080917A00826080937A0080917A00816076
:1004200080937A0080917A00806880937A0010929D
:10043000C100C0E0D1E028E031E0DE018D919D9166
:100440009927FC01E255FF4F649186569F4FFC01AE
:1004500084918823A1F090E0880F991FFC01E05758
:10046000FF4F45915491FC01EA57FF4F85919491BC
:100470008FB7F894FA019081962B90838FBF2A173B
:100480003B07E1F6A8E0B1E08D919D919927FC0131
:10049000E255FF4F249186569F4FFC01849188239B
:1004A000C9F090E0880F991FFC01E057FF4F45917C
:1004B0005491FC01EA57FF4F659174919FB7F894EE
:1004C000FA018081209582238083FB018081822331
:1004D00080839FBFF1E0A231BF07B1F681E00E94A7
:1004E000570198E0E92E91E0F92E10E000E0D88065
:1004F000229660E08D2D0E94D20064E670E080E0DC
:1005000090E00E942501F7018081F2E0EF0EF11CDE
:100510000E94A900892B19F0C8010E946A0161E0BC
:100520008D2D0E94D2000F5F1F4F04301105F9F688
:1005300061E083E10E94D200FF24F39480E0C82EA2
:1005400080E0D82EF0921B0108E011E0D0E0C0E07E
:10055000F80180810E5F1F4F0E94A90021E00197E2
:1005600009F020E080911B01282320931B01211119
:1005700002C0CE01D2CF2196C530D10549F7C114B2
:0E058000D10401F30E940000DDCFF894FFCFFC
:10058E0004000500060007000E000F001000110009
:02059E00020059
:00000001FF
